{
  "abi": [
    {
      "inputs": [
        {
          "internalType": "address",
          "name": "royaltyPolicy",
          "type": "address"
        },
        {
          "internalType": "uint256",
          "name": "mintingFee",
          "type": "uint256"
        },
        {
          "internalType": "address",
          "name": "mintingFeeToken",
          "type": "address"
        },
        {
          "internalType": "address",
          "name": "ipAssetRegistry_",
          "type": "address"
        },
        {
          "internalType": "address",
          "name": "spg_",
          "type": "address"
        }
      ],
      "stateMutability": "nonpayable",
      "type": "constructor"
    },
    {
      "inputs": [
        {
          "internalType": "address",
          "name": "sender",
          "type": "address"
        },
        {
          "internalType": "uint256",
          "name": "tokenId",
          "type": "uint256"
        },
        {
          "internalType": "address",
          "name": "owner",
          "type": "address"
        }
      ],
      "name": "ERC721IncorrectOwner",
      "type": "error"
    },
    {
      "inputs": [
        {
          "internalType": "address",
          "name": "operator",
          "type": "address"
        },
        {
          "internalType": "uint256",
          "name": "tokenId",
          "type": "uint256"
        }
      ],
      "name": "ERC721InsufficientApproval",
      "type": "error"
    },
    {
      "inputs": [
        {
          "internalType": "address",
          "name": "approver",
          "type": "address"
        }
      ],
      "name": "ERC721InvalidApprover",
      "type": "error"
    },
    {
      "inputs": [
        {
          "internalType": "address",
          "name": "operator",
          "type": "address"
        }
      ],
      "name": "ERC721InvalidOperator",
      "type": "error"
    },
    {
      "inputs": [
        {
          "internalType": "address",
          "name": "owner",
          "type": "address"
        }
      ],
      "name": "ERC721InvalidOwner",
      "type": "error"
    },
    {
      "inputs": [
        {
          "internalType": "address",
          "name": "receiver",
          "type": "address"
        }
      ],
      "name": "ERC721InvalidReceiver",
      "type": "error"
    },
    {
      "inputs": [
        {
          "internalType": "address",
          "name": "sender",
          "type": "address"
        }
      ],
      "name": "ERC721InvalidSender",
      "type": "error"
    },
    {
      "inputs": [
        {
          "internalType": "uint256",
          "name": "tokenId",
          "type": "uint256"
        }
      ],
      "name": "ERC721NonexistentToken",
      "type": "error"
    },
    {
      "anonymous": false,
      "inputs": [
        {
          "indexed": true,
          "internalType": "address",
          "name": "owner",
          "type": "address"
        },
        {
          "indexed": true,
          "internalType": "address",
          "name": "approved",
          "type": "address"
        },
        {
          "indexed": true,
          "internalType": "uint256",
          "name": "tokenId",
          "type": "uint256"
        }
      ],
      "name": "Approval",
      "type": "event"
    },
    {
      "anonymous": false,
      "inputs": [
        {
          "indexed": true,
          "internalType": "address",
          "name": "owner",
          "type": "address"
        },
        {
          "indexed": true,
          "internalType": "address",
          "name": "operator",
          "type": "address"
        },
        {
          "indexed": false,
          "internalType": "bool",
          "name": "approved",
          "type": "bool"
        }
      ],
      "name": "ApprovalForAll",
      "type": "event"
    },
    {
      "anonymous": false,
      "inputs": [
        {
          "indexed": false,
          "internalType": "uint256",
          "name": "_fromTokenId",
          "type": "uint256"
        },
        {
          "indexed": false,
          "internalType": "uint256",
          "name": "_toTokenId",
          "type": "uint256"
        }
      ],
      "name": "BatchMetadataUpdate",
      "type": "event"
    },
    {
      "anonymous": false,
      "inputs": [
        {
          "indexed": false,
          "internalType": "uint256",
          "name": "_tokenId",
          "type": "uint256"
        }
      ],
      "name": "MetadataUpdate",
      "type": "event"
    },
    {
      "anonymous": false,
      "inputs": [
        {
          "indexed": true,
          "internalType": "address",
          "name": "from",
          "type": "address"
        },
        {
          "indexed": true,
          "internalType": "address",
          "name": "to",
          "type": "address"
        },
        {
          "indexed": true,
          "internalType": "uint256",
          "name": "tokenId",
          "type": "uint256"
        }
      ],
      "name": "Transfer",
      "type": "event"
    },
    {
      "inputs": [],
      "name": "MINTING_FEE",
      "outputs": [
        {
          "internalType": "uint256",
          "name": "",
          "type": "uint256"
        }
      ],
      "stateMutability": "view",
      "type": "function"
    },
    {
      "inputs": [],
      "name": "MINTING_FEE_TOKEN",
      "outputs": [
        {
          "internalType": "address",
          "name": "",
          "type": "address"
        }
      ],
      "stateMutability": "view",
      "type": "function"
    },
    {
      "inputs": [],
      "name": "ROYALTY_POLICY",
      "outputs": [
        {
          "internalType": "address",
          "name": "",
          "type": "address"
        }
      ],
      "stateMutability": "view",
      "type": "function"
    },
    {
      "inputs": [
        {
          "internalType": "address",
          "name": "to",
          "type": "address"
        },
        {
          "internalType": "uint256",
          "name": "tokenId",
          "type": "uint256"
        }
      ],
      "name": "approve",
      "outputs": [],
      "stateMutability": "nonpayable",
      "type": "function"
    },
    {
      "inputs": [
        {
          "internalType": "address",
          "name": "owner",
          "type": "address"
        }
      ],
      "name": "balanceOf",
      "outputs": [
        {
          "internalType": "uint256",
          "name": "",
          "type": "uint256"
        }
      ],
      "stateMutability": "view",
      "type": "function"
    },
    {
      "inputs": [
        {
          "internalType": "uint256",
          "name": "tokenId",
          "type": "uint256"
        }
      ],
      "name": "getApproved",
      "outputs": [
        {
          "internalType": "address",
          "name": "",
          "type": "address"
        }
      ],
      "stateMutability": "view",
      "type": "function"
    },
    {
      "inputs": [],
      "name": "ipAssetRegistry",
      "outputs": [
        {
          "internalType": "contract IPAssetRegistry",
          "name": "",
          "type": "address"
        }
      ],
      "stateMutability": "view",
      "type": "function"
    },
    {
      "inputs": [
        {
          "internalType": "address",
          "name": "owner",
          "type": "address"
        },
        {
          "internalType": "address",
          "name": "operator",
          "type": "address"
        }
      ],
      "name": "isApprovedForAll",
      "outputs": [
        {
          "internalType": "bool",
          "name": "",
          "type": "bool"
        }
      ],
      "stateMutability": "view",
      "type": "function"
    },
    {
      "inputs": [
        {
          "internalType": "string",
          "name": "tokenURI",
          "type": "string"
        },
        {
          "internalType": "string",
          "name": "ipName",
          "type": "string"
        },
        {
          "internalType": "bytes",
          "name": "licencesUsed",
          "type": "bytes"
        },
        {
          "internalType": "uint256",
          "name": "policyId",
          "type": "uint256"
        },
        {
          "internalType": "bytes32",
          "name": "hash",
          "type": "bytes32"
        }
      ],
      "name": "mintAI",
      "outputs": [],
      "stateMutability": "nonpayable",
      "type": "function"
    },
    {
      "inputs": [],
      "name": "name",
      "outputs": [
        {
          "internalType": "string",
          "name": "",
          "type": "string"
        }
      ],
      "stateMutability": "view",
      "type": "function"
    },
    {
      "inputs": [
        {
          "internalType": "uint256",
          "name": "tokenId",
          "type": "uint256"
        }
      ],
      "name": "ownerOf",
      "outputs": [
        {
          "internalType": "address",
          "name": "",
          "type": "address"
        }
      ],
      "stateMutability": "view",
      "type": "function"
    },
    {
      "inputs": [
        {
          "internalType": "address",
          "name": "from",
          "type": "address"
        },
        {
          "internalType": "address",
          "name": "to",
          "type": "address"
        },
        {
          "internalType": "uint256",
          "name": "tokenId",
          "type": "uint256"
        }
      ],
      "name": "safeTransferFrom",
      "outputs": [],
      "stateMutability": "nonpayable",
      "type": "function"
    },
    {
      "inputs": [
        {
          "internalType": "address",
          "name": "from",
          "type": "address"
        },
        {
          "internalType": "address",
          "name": "to",
          "type": "address"
        },
        {
          "internalType": "uint256",
          "name": "tokenId",
          "type": "uint256"
        },
        {
          "internalType": "bytes",
          "name": "data",
          "type": "bytes"
        }
      ],
      "name": "safeTransferFrom",
      "outputs": [],
      "stateMutability": "nonpayable",
      "type": "function"
    },
    {
      "inputs": [
        {
          "internalType": "address",
          "name": "operator",
          "type": "address"
        },
        {
          "internalType": "bool",
          "name": "approved",
          "type": "bool"
        }
      ],
      "name": "setApprovalForAll",
      "outputs": [],
      "stateMutability": "nonpayable",
      "type": "function"
    },
    {
      "inputs": [],
      "name": "spg",
      "outputs": [
        {
          "internalType": "contract StoryProtocolGateway",
          "name": "",
          "type": "address"
        }
      ],
      "stateMutability": "view",
      "type": "function"
    },
    {
      "inputs": [
        {
          "internalType": "bytes4",
          "name": "interfaceId",
          "type": "bytes4"
        }
      ],
      "name": "supportsInterface",
      "outputs": [
        {
          "internalType": "bool",
          "name": "",
          "type": "bool"
        }
      ],
      "stateMutability": "view",
      "type": "function"
    },
    {
      "inputs": [],
      "name": "symbol",
      "outputs": [
        {
          "internalType": "string",
          "name": "",
          "type": "string"
        }
      ],
      "stateMutability": "view",
      "type": "function"
    },
    {
      "inputs": [],
      "name": "tokenID",
      "outputs": [
        {
          "internalType": "uint256",
          "name": "",
          "type": "uint256"
        }
      ],
      "stateMutability": "view",
      "type": "function"
    },
    {
      "inputs": [
        {
          "internalType": "uint256",
          "name": "tokenId",
          "type": "uint256"
        }
      ],
      "name": "tokenURI",
      "outputs": [
        {
          "internalType": "string",
          "name": "",
          "type": "string"
        }
      ],
      "stateMutability": "view",
      "type": "function"
    },
    {
      "inputs": [
        {
          "internalType": "address",
          "name": "from",
          "type": "address"
        },
        {
          "internalType": "address",
          "name": "to",
          "type": "address"
        },
        {
          "internalType": "uint256",
          "name": "tokenId",
          "type": "uint256"
        }
      ],
      "name": "transferFrom",
      "outputs": [],
      "stateMutability": "nonpayable",
      "type": "function"
    }
  ],
  "bytecode": {
    "object": "0x60806040523480156200001157600080fd5b5060405162001a2738038062001a2783398101604081905262000034916200016b565b6040518060400160405280600681526020016520a4902bb4b760d11b8152506040518060400160405280600381526020016241495760e81b815250816000908162000080919062000279565b5060016200008f828262000279565b5050600780546001600160a01b038881166001600160a01b031992831617909255600887905560098054878416908316179055600b80548584169083168117909155600a805493871693909216831790915560405163a22cb46560e01b815260048101919091526001602482015290915063a22cb46590604401600060405180830381600087803b1580156200012457600080fd5b505af115801562000139573d6000803e3d6000fd5b50506000600c55506200034595505050505050565b80516001600160a01b03811681146200016657600080fd5b919050565b600080600080600060a086880312156200018457600080fd5b6200018f866200014e565b945060208601519350620001a6604087016200014e565b9250620001b6606087016200014e565b9150620001c6608087016200014e565b90509295509295909350565b634e487b7160e01b600052604160045260246000fd5b600181811c90821680620001fd57607f821691505b6020821081036200021e57634e487b7160e01b600052602260045260246000fd5b50919050565b601f82111562000274576000816000526020600020601f850160051c810160208610156200024f5750805b601f850160051c820191505b8181101562000270578281556001016200025b565b5050505b505050565b81516001600160401b03811115620002955762000295620001d2565b620002ad81620002a68454620001e8565b8462000224565b602080601f831160018114620002e55760008415620002cc5750858301515b600019600386901b1c1916600185901b17855562000270565b600085815260208120601f198616915b828110156200031657888601518255948401946001909101908401620002f5565b5085821015620003355787850151600019600388901b60f8161c191681555b5050505050600190811b01905550565b6116d280620003556000396000f3fe608060405234801561001057600080fd5b506004361061012c5760003560e01c80636352211e116100ad578063a5c42ef111610071578063a5c42ef114610282578063b88d4fde1461028b578063c87b56dd1461029e578063d642b4b1146102b1578063e985e9c5146102ba57600080fd5b80636352211e1461022057806366e89edd1461023357806370a082311461024657806395d89b4114610267578063a22cb4651461026f57600080fd5b806323fd6d02116100f457806323fd6d02146101c15780632ef47279146101d45780633dcd103d146101e757806342842e0e146101fa578063484792721461020d57600080fd5b806301ffc9a71461013157806306fdde0314610159578063081812fc1461016e578063095ea7b31461019957806323b872dd146101ae575b600080fd5b61014461013f366004610ffb565b6102cd565b60405190151581526020015b60405180910390f35b6101616102f8565b6040516101509190611068565b61018161017c36600461107b565b61038a565b6040516001600160a01b039091168152602001610150565b6101ac6101a73660046110a9565b6103b3565b005b6101ac6101bc3660046110d5565b6103c2565b6101ac6101cf3660046111b9565b610452565b600754610181906001600160a01b031681565b600a54610181906001600160a01b031681565b6101ac6102083660046110d5565b61062b565b600b54610181906001600160a01b031681565b61018161022e36600461107b565b61064b565b600954610181906001600160a01b031681565b610259610254366004611253565b610656565b604051908152602001610150565b61016161069e565b6101ac61027d366004611270565b6106ad565b610259600c5481565b6101ac6102993660046112ae565b6106b8565b6101616102ac36600461107b565b6106d0565b61025960085481565b6101446102c836600461131a565b6107e1565b60006001600160e01b03198216632483248360e11b14806102f257506102f28261080f565b92915050565b60606000805461030790611348565b80601f016020809104026020016040519081016040528092919081815260200182805461033390611348565b80156103805780601f1061035557610100808354040283529160200191610380565b820191906000526020600020905b81548152906001019060200180831161036357829003601f168201915b5050505050905090565b60006103958261085f565b506000828152600460205260409020546001600160a01b03166102f2565b6103be828233610898565b5050565b6001600160a01b0382166103f157604051633250574960e11b8152600060048201526024015b60405180910390fd5b60006103fe8383336108a5565b9050836001600160a01b0316816001600160a01b03161461044c576040516364283d7b60e01b81526001600160a01b03808616600483015260248201849052821660448201526064016103e8565b50505050565b61045f33600c548561099e565b61046b600c54866109b6565b604080516001808252818301909252600091816020015b604080518082019091526060808252602082015281526020019060019003908161048257905050905060405180604001604052806040518060400160405280600d81526020016c636f707972696768745479706560981b81525081526020016040518060400160405280600781526020016613531b5bd9195b60ca1b8152508152508160008151811061051757610517611382565b60200260200101819052506000604051806080016040528087815260200184815260200188815260200183815250905060006040518060600160405280306001600160a01b03168152602001426103e86105719190611398565b815260408051602081810183526000808352930152600b54600c549151635d1fdedf60e11b815293945091926001600160a01b039092169163ba3fbdbe916105c3918a913091899089906004016113ea565b6020604051808303816000875af11580156105e2573d6000803e3d6000fd5b505050506040513d601f19601f8201168201806040525081019061060691906114ee565b90506001600c600082825461061b9190611398565b9091555050505050505050505050565b610646838383604051806020016040528060008152506106b8565b505050565b60006102f28261085f565b60006001600160a01b038216610682576040516322718ad960e21b8152600060048201526024016103e8565b506001600160a01b031660009081526003602052604090205490565b60606001805461030790611348565b6103be338383610a06565b6106c38484846103c2565b61044c3385858585610aa5565b60606106db8261085f565b50600082815260066020526040812080546106f590611348565b80601f016020809104026020016040519081016040528092919081815260200182805461072190611348565b801561076e5780601f106107435761010080835404028352916020019161076e565b820191906000526020600020905b81548152906001019060200180831161075157829003601f168201915b50505050509050600061078c60408051602081019091526000815290565b9050805160000361079e575092915050565b8151156107d05780826040516020016107b892919061150b565b60405160208183030381529060405292505050919050565b6107d984610bd0565b949350505050565b6001600160a01b03918216600090815260056020908152604080832093909416825291909152205460ff1690565b60006001600160e01b031982166380ac58cd60e01b148061084057506001600160e01b03198216635b5e139f60e01b145b806102f257506301ffc9a760e01b6001600160e01b03198316146102f2565b6000818152600260205260408120546001600160a01b0316806102f257604051637e27328960e01b8152600481018490526024016103e8565b6106468383836001610c45565b6000828152600260205260408120546001600160a01b03908116908316156108d2576108d2818486610d4b565b6001600160a01b03811615610910576108ef600085600080610c45565b6001600160a01b038116600090815260036020526040902080546000190190555b6001600160a01b0385161561093f576001600160a01b0385166000908152600360205260409020805460010190555b60008481526002602052604080822080546001600160a01b0319166001600160a01b0389811691821790925591518793918516917fddf252ad1be2c89b69c2b068fc378daa952ba7f163c4a11628f55a4df523b3ef91a4949350505050565b6109a88383610daf565b610646336000858585610aa5565b60008281526006602052604090206109ce8282611582565b506040518281527ff8e1a15aba9398e019f0b49df1a4fde98ee17ae345cb5f6b5e2c27f5033e8ce79060200160405180910390a15050565b6001600160a01b038216610a3857604051630b61174360e31b81526001600160a01b03831660048201526024016103e8565b6001600160a01b03838116600081815260056020908152604080832094871680845294825291829020805460ff191686151590811790915591519182527f17307eab39ab6107e8899845ad3d59bd9653f200f220920489ca2b5937696c31910160405180910390a3505050565b6001600160a01b0383163b15610bc957604051630a85bd0160e11b81526001600160a01b0384169063150b7a0290610ae7908890889087908790600401611642565b6020604051808303816000875af1925050508015610b22575060408051601f3d908101601f19168201909252610b1f9181019061167f565b60015b610b8b573d808015610b50576040519150601f19603f3d011682016040523d82523d6000602084013e610b55565b606091505b508051600003610b8357604051633250574960e11b81526001600160a01b03851660048201526024016103e8565b805181602001fd5b6001600160e01b03198116630a85bd0160e11b14610bc757604051633250574960e11b81526001600160a01b03851660048201526024016103e8565b505b5050505050565b6060610bdb8261085f565b506000610bf360408051602081019091526000815290565b90506000815111610c135760405180602001604052806000815250610c3e565b80610c1d84610e14565b604051602001610c2e92919061150b565b6040516020818303038152906040525b9392505050565b8080610c5957506001600160a01b03821615155b15610d1b576000610c698461085f565b90506001600160a01b03831615801590610c955750826001600160a01b0316816001600160a01b031614155b8015610ca85750610ca681846107e1565b155b15610cd15760405163a9fbf51f60e01b81526001600160a01b03841660048201526024016103e8565b8115610d195783856001600160a01b0316826001600160a01b03167f8c5be1e5ebec7d5bd14f71427d1e84f3dd0314c0f7b2291e5b200ac8c7c3b92560405160405180910390a45b505b5050600090815260046020526040902080546001600160a01b0319166001600160a01b0392909216919091179055565b610d56838383610ea7565b610646576001600160a01b038316610d8457604051637e27328960e01b8152600481018290526024016103e8565b60405163177e802f60e01b81526001600160a01b0383166004820152602481018290526044016103e8565b6001600160a01b038216610dd957604051633250574960e11b8152600060048201526024016103e8565b6000610de7838360006108a5565b90506001600160a01b03811615610646576040516339e3563760e11b8152600060048201526024016103e8565b60606000610e2183610f0a565b600101905060008167ffffffffffffffff811115610e4157610e41611116565b6040519080825280601f01601f191660200182016040528015610e6b576020820181803683370190505b5090508181016020015b600019016f181899199a1a9b1b9c1cb0b131b232b360811b600a86061a8153600a8504945084610e7557509392505050565b60006001600160a01b038316158015906107d95750826001600160a01b0316846001600160a01b03161480610ee15750610ee184846107e1565b806107d95750506000908152600460205260409020546001600160a01b03908116911614919050565b60008072184f03e93ff9f4daa797ed6e38ed64bf6a1f0160401b8310610f495772184f03e93ff9f4daa797ed6e38ed64bf6a1f0160401b830492506040015b6d04ee2d6d415b85acef81000000008310610f75576d04ee2d6d415b85acef8100000000830492506020015b662386f26fc100008310610f9357662386f26fc10000830492506010015b6305f5e1008310610fab576305f5e100830492506008015b6127108310610fbf57612710830492506004015b60648310610fd1576064830492506002015b600a83106102f25760010192915050565b6001600160e01b031981168114610ff857600080fd5b50565b60006020828403121561100d57600080fd5b8135610c3e81610fe2565b60005b8381101561103357818101518382015260200161101b565b50506000910152565b60008151808452611054816020860160208601611018565b601f01601f19169290920160200192915050565b602081526000610c3e602083018461103c565b60006020828403121561108d57600080fd5b5035919050565b6001600160a01b0381168114610ff857600080fd5b600080604083850312156110bc57600080fd5b82356110c781611094565b946020939093013593505050565b6000806000606084860312156110ea57600080fd5b83356110f581611094565b9250602084013561110581611094565b929592945050506040919091013590565b634e487b7160e01b600052604160045260246000fd5b600082601f83011261113d57600080fd5b813567ffffffffffffffff8082111561115857611158611116565b604051601f8301601f19908116603f0116810190828211818310171561118057611180611116565b8160405283815286602085880101111561119957600080fd5b836020870160208301376000602085830101528094505050505092915050565b600080600080600060a086880312156111d157600080fd5b853567ffffffffffffffff808211156111e957600080fd5b6111f589838a0161112c565b9650602088013591508082111561120b57600080fd5b61121789838a0161112c565b9550604088013591508082111561122d57600080fd5b5061123a8882890161112c565b9598949750949560608101359550608001359392505050565b60006020828403121561126557600080fd5b8135610c3e81611094565b6000806040838503121561128357600080fd5b823561128e81611094565b9150602083013580151581146112a357600080fd5b809150509250929050565b600080600080608085870312156112c457600080fd5b84356112cf81611094565b935060208501356112df81611094565b925060408501359150606085013567ffffffffffffffff81111561130257600080fd5b61130e8782880161112c565b91505092959194509250565b6000806040838503121561132d57600080fd5b823561133881611094565b915060208301356112a381611094565b600181811c9082168061135c57607f821691505b60208210810361137c57634e487b7160e01b600052602260045260246000fd5b50919050565b634e487b7160e01b600052603260045260246000fd5b808201808211156102f257634e487b7160e01b600052601160045260246000fd5b60018060a01b0381511682526020810151602083015260006040820151606060408501526107d9606085018261103c565b8581526000602060018060a01b03871681840152604086604085015260a060608501528551608060a086015261142461012086018261103c565b90508287015160c08601526040870151609f19808784030160e088015261144b838361103c565b60608a01518882039092016101008901528151808252909350908501915084830190600581901b8401860160005b828110156114c957858203601f190184528451805188845261149d8985018261103c565b918a0151848303858c01529190506114b5818361103c565b968a0196958a019593505050600101611479565b5088810360808a01526114dc818b6113b9565b9e9d5050505050505050505050505050565b60006020828403121561150057600080fd5b8151610c3e81611094565b6000835161151d818460208801611018565b835190830190611531818360208801611018565b01949350505050565b601f821115610646576000816000526020600020601f850160051c810160208610156115635750805b601f850160051c820191505b81811015610bc75782815560010161156f565b815167ffffffffffffffff81111561159c5761159c611116565b6115b0816115aa8454611348565b8461153a565b602080601f8311600181146115e557600084156115cd5750858301515b600019600386901b1c1916600185901b178555610bc7565b600085815260208120601f198616915b82811015611614578886015182559484019460019091019084016115f5565b50858210156116325787850151600019600388901b60f8161c191681555b5050505050600190811b01905550565b6001600160a01b03858116825284166020820152604081018390526080606082018190526000906116759083018461103c565b9695505050505050565b60006020828403121561169157600080fd5b8151610c3e81610fe256fea2646970667358221220ed39f41e434edf633444d777969c80b4e1a069c739c67473eca93f3facd694c264736f6c63430008170033",
    "linkReferences": {}
  },
  "methodIdentifiers": {
    "MINTING_FEE()": "d642b4b1",
    "MINTING_FEE_TOKEN()": "66e89edd",
    "ROYALTY_POLICY()": "2ef47279",
    "approve(address,uint256)": "095ea7b3",
    "balanceOf(address)": "70a08231",
    "getApproved(uint256)": "081812fc",
    "ipAssetRegistry()": "3dcd103d",
    "isApprovedForAll(address,address)": "e985e9c5",
    "mintAI(string,string,bytes,uint256,bytes32)": "23fd6d02",
    "name()": "06fdde03",
    "ownerOf(uint256)": "6352211e",
    "safeTransferFrom(address,address,uint256)": "42842e0e",
    "safeTransferFrom(address,address,uint256,bytes)": "b88d4fde",
    "setApprovalForAll(address,bool)": "a22cb465",
    "spg()": "48479272",
    "supportsInterface(bytes4)": "01ffc9a7",
    "symbol()": "95d89b41",
    "tokenID()": "a5c42ef1",
    "tokenURI(uint256)": "c87b56dd",
    "transferFrom(address,address,uint256)": "23b872dd"
  },
  "id": 0
}