{
  "abi": [
    {
      "inputs": [
        {
          "internalType": "address",
          "name": "ipAssetRegistry_",
          "type": "address"
        },
        {
          "internalType": "address",
          "name": "spg_",
          "type": "address"
        }
      ],
      "stateMutability": "nonpayable",
      "type": "constructor"
    },
    {
      "inputs": [
        {
          "internalType": "address",
          "name": "sender",
          "type": "address"
        },
        {
          "internalType": "uint256",
          "name": "tokenId",
          "type": "uint256"
        },
        {
          "internalType": "address",
          "name": "owner",
          "type": "address"
        }
      ],
      "name": "ERC721IncorrectOwner",
      "type": "error"
    },
    {
      "inputs": [
        {
          "internalType": "address",
          "name": "operator",
          "type": "address"
        },
        {
          "internalType": "uint256",
          "name": "tokenId",
          "type": "uint256"
        }
      ],
      "name": "ERC721InsufficientApproval",
      "type": "error"
    },
    {
      "inputs": [
        {
          "internalType": "address",
          "name": "approver",
          "type": "address"
        }
      ],
      "name": "ERC721InvalidApprover",
      "type": "error"
    },
    {
      "inputs": [
        {
          "internalType": "address",
          "name": "operator",
          "type": "address"
        }
      ],
      "name": "ERC721InvalidOperator",
      "type": "error"
    },
    {
      "inputs": [
        {
          "internalType": "address",
          "name": "owner",
          "type": "address"
        }
      ],
      "name": "ERC721InvalidOwner",
      "type": "error"
    },
    {
      "inputs": [
        {
          "internalType": "address",
          "name": "receiver",
          "type": "address"
        }
      ],
      "name": "ERC721InvalidReceiver",
      "type": "error"
    },
    {
      "inputs": [
        {
          "internalType": "address",
          "name": "sender",
          "type": "address"
        }
      ],
      "name": "ERC721InvalidSender",
      "type": "error"
    },
    {
      "inputs": [
        {
          "internalType": "uint256",
          "name": "tokenId",
          "type": "uint256"
        }
      ],
      "name": "ERC721NonexistentToken",
      "type": "error"
    },
    {
      "anonymous": false,
      "inputs": [
        {
          "indexed": true,
          "internalType": "address",
          "name": "owner",
          "type": "address"
        },
        {
          "indexed": true,
          "internalType": "address",
          "name": "approved",
          "type": "address"
        },
        {
          "indexed": true,
          "internalType": "uint256",
          "name": "tokenId",
          "type": "uint256"
        }
      ],
      "name": "Approval",
      "type": "event"
    },
    {
      "anonymous": false,
      "inputs": [
        {
          "indexed": true,
          "internalType": "address",
          "name": "owner",
          "type": "address"
        },
        {
          "indexed": true,
          "internalType": "address",
          "name": "operator",
          "type": "address"
        },
        {
          "indexed": false,
          "internalType": "bool",
          "name": "approved",
          "type": "bool"
        }
      ],
      "name": "ApprovalForAll",
      "type": "event"
    },
    {
      "anonymous": false,
      "inputs": [
        {
          "indexed": false,
          "internalType": "uint256",
          "name": "_fromTokenId",
          "type": "uint256"
        },
        {
          "indexed": false,
          "internalType": "uint256",
          "name": "_toTokenId",
          "type": "uint256"
        }
      ],
      "name": "BatchMetadataUpdate",
      "type": "event"
    },
    {
      "anonymous": false,
      "inputs": [
        {
          "indexed": false,
          "internalType": "uint256",
          "name": "_tokenId",
          "type": "uint256"
        }
      ],
      "name": "MetadataUpdate",
      "type": "event"
    },
    {
      "anonymous": false,
      "inputs": [
        {
          "indexed": true,
          "internalType": "address",
          "name": "from",
          "type": "address"
        },
        {
          "indexed": true,
          "internalType": "address",
          "name": "to",
          "type": "address"
        },
        {
          "indexed": true,
          "internalType": "uint256",
          "name": "tokenId",
          "type": "uint256"
        }
      ],
      "name": "Transfer",
      "type": "event"
    },
    {
      "inputs": [
        {
          "internalType": "address",
          "name": "to",
          "type": "address"
        },
        {
          "internalType": "uint256",
          "name": "tokenId",
          "type": "uint256"
        }
      ],
      "name": "approve",
      "outputs": [],
      "stateMutability": "nonpayable",
      "type": "function"
    },
    {
      "inputs": [
        {
          "internalType": "address",
          "name": "owner",
          "type": "address"
        }
      ],
      "name": "balanceOf",
      "outputs": [
        {
          "internalType": "uint256",
          "name": "",
          "type": "uint256"
        }
      ],
      "stateMutability": "view",
      "type": "function"
    },
    {
      "inputs": [
        {
          "internalType": "uint256",
          "name": "tokenId",
          "type": "uint256"
        }
      ],
      "name": "getApproved",
      "outputs": [
        {
          "internalType": "address",
          "name": "",
          "type": "address"
        }
      ],
      "stateMutability": "view",
      "type": "function"
    },
    {
      "inputs": [],
      "name": "ipAssetRegistry",
      "outputs": [
        {
          "internalType": "contract IPAssetRegistry",
          "name": "",
          "type": "address"
        }
      ],
      "stateMutability": "view",
      "type": "function"
    },
    {
      "inputs": [
        {
          "internalType": "address",
          "name": "owner",
          "type": "address"
        },
        {
          "internalType": "address",
          "name": "operator",
          "type": "address"
        }
      ],
      "name": "isApprovedForAll",
      "outputs": [
        {
          "internalType": "bool",
          "name": "",
          "type": "bool"
        }
      ],
      "stateMutability": "view",
      "type": "function"
    },
    {
      "inputs": [
        {
          "internalType": "string",
          "name": "tokenURI",
          "type": "string"
        },
        {
          "internalType": "uint256",
          "name": "policyId",
          "type": "uint256"
        }
      ],
      "name": "mintAndRegister",
      "outputs": [],
      "stateMutability": "nonpayable",
      "type": "function"
    },
    {
      "inputs": [],
      "name": "name",
      "outputs": [
        {
          "internalType": "string",
          "name": "",
          "type": "string"
        }
      ],
      "stateMutability": "view",
      "type": "function"
    },
    {
      "inputs": [
        {
          "internalType": "uint256",
          "name": "tokenId",
          "type": "uint256"
        }
      ],
      "name": "ownerOf",
      "outputs": [
        {
          "internalType": "address",
          "name": "",
          "type": "address"
        }
      ],
      "stateMutability": "view",
      "type": "function"
    },
    {
      "inputs": [
        {
          "internalType": "address",
          "name": "from",
          "type": "address"
        },
        {
          "internalType": "address",
          "name": "to",
          "type": "address"
        },
        {
          "internalType": "uint256",
          "name": "tokenId",
          "type": "uint256"
        }
      ],
      "name": "safeTransferFrom",
      "outputs": [],
      "stateMutability": "nonpayable",
      "type": "function"
    },
    {
      "inputs": [
        {
          "internalType": "address",
          "name": "from",
          "type": "address"
        },
        {
          "internalType": "address",
          "name": "to",
          "type": "address"
        },
        {
          "internalType": "uint256",
          "name": "tokenId",
          "type": "uint256"
        },
        {
          "internalType": "bytes",
          "name": "data",
          "type": "bytes"
        }
      ],
      "name": "safeTransferFrom",
      "outputs": [],
      "stateMutability": "nonpayable",
      "type": "function"
    },
    {
      "inputs": [
        {
          "internalType": "address",
          "name": "operator",
          "type": "address"
        },
        {
          "internalType": "bool",
          "name": "approved",
          "type": "bool"
        }
      ],
      "name": "setApprovalForAll",
      "outputs": [],
      "stateMutability": "nonpayable",
      "type": "function"
    },
    {
      "inputs": [],
      "name": "spg",
      "outputs": [
        {
          "internalType": "contract StoryProtocolGateway",
          "name": "",
          "type": "address"
        }
      ],
      "stateMutability": "view",
      "type": "function"
    },
    {
      "inputs": [
        {
          "internalType": "bytes4",
          "name": "interfaceId",
          "type": "bytes4"
        }
      ],
      "name": "supportsInterface",
      "outputs": [
        {
          "internalType": "bool",
          "name": "",
          "type": "bool"
        }
      ],
      "stateMutability": "view",
      "type": "function"
    },
    {
      "inputs": [],
      "name": "symbol",
      "outputs": [
        {
          "internalType": "string",
          "name": "",
          "type": "string"
        }
      ],
      "stateMutability": "view",
      "type": "function"
    },
    {
      "inputs": [],
      "name": "tokenID",
      "outputs": [
        {
          "internalType": "uint256",
          "name": "",
          "type": "uint256"
        }
      ],
      "stateMutability": "view",
      "type": "function"
    },
    {
      "inputs": [
        {
          "internalType": "uint256",
          "name": "tokenId",
          "type": "uint256"
        }
      ],
      "name": "tokenURI",
      "outputs": [
        {
          "internalType": "string",
          "name": "",
          "type": "string"
        }
      ],
      "stateMutability": "view",
      "type": "function"
    },
    {
      "inputs": [
        {
          "internalType": "address",
          "name": "from",
          "type": "address"
        },
        {
          "internalType": "address",
          "name": "to",
          "type": "address"
        },
        {
          "internalType": "uint256",
          "name": "tokenId",
          "type": "uint256"
        }
      ],
      "name": "transferFrom",
      "outputs": [],
      "stateMutability": "nonpayable",
      "type": "function"
    }
  ],
  "bytecode": {
    "object": "0x60806040523480156200001157600080fd5b50604051620018f9380380620018f98339810160408190526200003491620000ee565b6040518060400160405280600c81526020016b1cdd1bdc9e50dbdb9d195b9d60a21b81525060405180604001604052806002815260200161534360f01b8152508160009081620000859190620001cd565b506001620000948282620001cd565b5050600880546001600160a01b039384166001600160a01b0319918216179091556007805494909316931692909217905550600060095562000299565b80516001600160a01b0381168114620000e957600080fd5b919050565b600080604083850312156200010257600080fd5b6200010d83620000d1565b91506200011d60208401620000d1565b90509250929050565b634e487b7160e01b600052604160045260246000fd5b600181811c908216806200015157607f821691505b6020821081036200017257634e487b7160e01b600052602260045260246000fd5b50919050565b601f821115620001c8576000816000526020600020601f850160051c81016020861015620001a35750805b601f850160051c820191505b81811015620001c457828155600101620001af565b5050505b505050565b81516001600160401b03811115620001e957620001e962000126565b6200020181620001fa84546200013c565b8462000178565b602080601f831160018114620002395760008415620002205750858301515b600019600386901b1c1916600185901b178555620001c4565b600085815260208120601f198616915b828110156200026a5788860151825594840194600190910190840162000249565b5085821015620002895787850151600019600388901b60f8161c191681555b5050505050600190811b01905550565b61165080620002a96000396000f3fe608060405234801561001057600080fd5b506004361061010b5760003560e01c80636352211e116100a2578063a5c42ef111610071578063a5c42ef114610228578063b88d4fde14610231578063c87b56dd14610244578063e985e9c514610257578063ec66ee3f1461026a57600080fd5b80636352211e146101d957806370a08231146101ec57806395d89b411461020d578063a22cb4651461021557600080fd5b806323b872dd116100de57806323b872dd1461018d5780633dcd103d146101a057806342842e0e146101b357806348479272146101c657600080fd5b806301ffc9a71461011057806306fdde0314610138578063081812fc1461014d578063095ea7b314610178575b600080fd5b61012361011e366004610fbd565b61027d565b60405190151581526020015b60405180910390f35b6101406102a8565b60405161012f919061102a565b61016061015b36600461103d565b61033a565b6040516001600160a01b03909116815260200161012f565b61018b61018636600461106b565b610363565b005b61018b61019b366004611097565b610372565b600754610160906001600160a01b031681565b61018b6101c1366004611097565b610402565b600854610160906001600160a01b031681565b6101606101e736600461103d565b610422565b6101ff6101fa3660046110d8565b61042d565b60405190815260200161012f565b610140610475565b61018b6102233660046110f5565b610484565b6101ff60095481565b61018b61023f3660046111bf565b61048f565b61014061025236600461103d565b6104a7565b61012361026536600461123f565b6105b8565b61018b61027836600461126d565b6105e6565b60006001600160e01b03198216632483248360e11b14806102a257506102a2826107b7565b92915050565b6060600080546102b7906112c6565b80601f01602080910402602001604051908101604052809291908181526020018280546102e3906112c6565b80156103305780601f1061030557610100808354040283529160200191610330565b820191906000526020600020905b81548152906001019060200180831161031357829003601f168201915b5050505050905090565b600061034582610807565b506000828152600460205260409020546001600160a01b03166102a2565b61036e828233610840565b5050565b6001600160a01b0382166103a157604051633250574960e11b8152600060048201526024015b60405180910390fd5b60006103ae83833361084d565b9050836001600160a01b0316816001600160a01b0316146103fc576040516364283d7b60e01b81526001600160a01b0380861660048301526024820184905282166044820152606401610398565b50505050565b61041d8383836040518060200160405280600081525061048f565b505050565b60006102a282610807565b60006001600160a01b038216610459576040516322718ad960e21b815260006004820152602401610398565b506001600160a01b031660009081526003602052604090205490565b6060600180546102b7906112c6565b61036e338383610946565b61049a848484610372565b6103fc33858585856109e5565b60606104b282610807565b50600082815260066020526040812080546104cc906112c6565b80601f01602080910402602001604051908101604052809291908181526020018280546104f8906112c6565b80156105455780601f1061051a57610100808354040283529160200191610545565b820191906000526020600020905b81548152906001019060200180831161052857829003601f168201915b50505050509050600061056360408051602081019091526000815290565b90508051600003610575575092915050565b8151156105a757808260405160200161058f929190611300565b60405160208183030381529060405292505050919050565b6105b084610b10565b949350505050565b6001600160a01b03918216600090815260056020908152604080832093909416825291909152205460ff1690565b6105f233600954610b85565b6105fe60095483610b9f565b604080516001808252818301909252600091816020015b604080518082019091526060808252602082015281526020019060019003908161061557905050905060405180604001604052806040518060400160405280600d81526020016c636f707972696768745479706560981b81525081526020016040518060400160405280600781526020016613531b5bd9195b60ca1b815250815250816000815181106106aa576106aa61132f565b6020908102919091018101919091526040805160a08101825260006080820181815282528184018190528183018790526060808301869052835190810190935230835290929091908101610700426103e8611345565b8152604080516020818101835260008083529301526008546009549151635d1fdedf60e11b815293945091926001600160a01b039092169163ba3fbdbe91610752918991309189908990600401611397565b6020604051808303816000875af1158015610771573d6000803e3d6000fd5b505050506040513d601f19601f82011682018060405250810190610795919061149b565b90506001600960008282546107aa9190611345565b9091555050505050505050565b60006001600160e01b031982166380ac58cd60e01b14806107e857506001600160e01b03198216635b5e139f60e01b145b806102a257506301ffc9a760e01b6001600160e01b03198316146102a2565b6000818152600260205260408120546001600160a01b0316806102a257604051637e27328960e01b815260048101849052602401610398565b61041d8383836001610bef565b6000828152600260205260408120546001600160a01b039081169083161561087a5761087a818486610cf5565b6001600160a01b038116156108b857610897600085600080610bef565b6001600160a01b038116600090815260036020526040902080546000190190555b6001600160a01b038516156108e7576001600160a01b0385166000908152600360205260409020805460010190555b60008481526002602052604080822080546001600160a01b0319166001600160a01b0389811691821790925591518793918516917fddf252ad1be2c89b69c2b068fc378daa952ba7f163c4a11628f55a4df523b3ef91a4949350505050565b6001600160a01b03821661097857604051630b61174360e31b81526001600160a01b0383166004820152602401610398565b6001600160a01b03838116600081815260056020908152604080832094871680845294825291829020805460ff191686151590811790915591519182527f17307eab39ab6107e8899845ad3d59bd9653f200f220920489ca2b5937696c31910160405180910390a3505050565b6001600160a01b0383163b15610b0957604051630a85bd0160e11b81526001600160a01b0384169063150b7a0290610a279088908890879087906004016114b8565b6020604051808303816000875af1925050508015610a62575060408051601f3d908101601f19168201909252610a5f918101906114f5565b60015b610acb573d808015610a90576040519150601f19603f3d011682016040523d82523d6000602084013e610a95565b606091505b508051600003610ac357604051633250574960e11b81526001600160a01b0385166004820152602401610398565b805181602001fd5b6001600160e01b03198116630a85bd0160e11b14610b0757604051633250574960e11b81526001600160a01b0385166004820152602401610398565b505b5050505050565b6060610b1b82610807565b506000610b3360408051602081019091526000815290565b90506000815111610b535760405180602001604052806000815250610b7e565b80610b5d84610d59565b604051602001610b6e929190611300565b6040516020818303038152906040525b9392505050565b61036e828260405180602001604052806000815250610dec565b6000828152600660205260409020610bb7828261155a565b506040518281527ff8e1a15aba9398e019f0b49df1a4fde98ee17ae345cb5f6b5e2c27f5033e8ce79060200160405180910390a15050565b8080610c0357506001600160a01b03821615155b15610cc5576000610c1384610807565b90506001600160a01b03831615801590610c3f5750826001600160a01b0316816001600160a01b031614155b8015610c525750610c5081846105b8565b155b15610c7b5760405163a9fbf51f60e01b81526001600160a01b0384166004820152602401610398565b8115610cc35783856001600160a01b0316826001600160a01b03167f8c5be1e5ebec7d5bd14f71427d1e84f3dd0314c0f7b2291e5b200ac8c7c3b92560405160405180910390a45b505b5050600090815260046020526040902080546001600160a01b0319166001600160a01b0392909216919091179055565b610d00838383610e04565b61041d576001600160a01b038316610d2e57604051637e27328960e01b815260048101829052602401610398565b60405163177e802f60e01b81526001600160a01b038316600482015260248101829052604401610398565b60606000610d6683610e67565b600101905060008167ffffffffffffffff811115610d8657610d86611133565b6040519080825280601f01601f191660200182016040528015610db0576020820181803683370190505b5090508181016020015b600019016f181899199a1a9b1b9c1cb0b131b232b360811b600a86061a8153600a8504945084610dba57509392505050565b610df68383610f3f565b61041d3360008585856109e5565b60006001600160a01b038316158015906105b05750826001600160a01b0316846001600160a01b03161480610e3e5750610e3e84846105b8565b806105b05750506000908152600460205260409020546001600160a01b03908116911614919050565b60008072184f03e93ff9f4daa797ed6e38ed64bf6a1f0160401b8310610ea65772184f03e93ff9f4daa797ed6e38ed64bf6a1f0160401b830492506040015b6d04ee2d6d415b85acef81000000008310610ed2576d04ee2d6d415b85acef8100000000830492506020015b662386f26fc100008310610ef057662386f26fc10000830492506010015b6305f5e1008310610f08576305f5e100830492506008015b6127108310610f1c57612710830492506004015b60648310610f2e576064830492506002015b600a83106102a25760010192915050565b6001600160a01b038216610f6957604051633250574960e11b815260006004820152602401610398565b6000610f778383600061084d565b90506001600160a01b0381161561041d576040516339e3563760e11b815260006004820152602401610398565b6001600160e01b031981168114610fba57600080fd5b50565b600060208284031215610fcf57600080fd5b8135610b7e81610fa4565b60005b83811015610ff5578181015183820152602001610fdd565b50506000910152565b60008151808452611016816020860160208601610fda565b601f01601f19169290920160200192915050565b602081526000610b7e6020830184610ffe565b60006020828403121561104f57600080fd5b5035919050565b6001600160a01b0381168114610fba57600080fd5b6000806040838503121561107e57600080fd5b823561108981611056565b946020939093013593505050565b6000806000606084860312156110ac57600080fd5b83356110b781611056565b925060208401356110c781611056565b929592945050506040919091013590565b6000602082840312156110ea57600080fd5b8135610b7e81611056565b6000806040838503121561110857600080fd5b823561111381611056565b91506020830135801515811461112857600080fd5b809150509250929050565b634e487b7160e01b600052604160045260246000fd5b600067ffffffffffffffff8084111561116457611164611133565b604051601f8501601f19908116603f0116810190828211818310171561118c5761118c611133565b816040528093508581528686860111156111a557600080fd5b858560208301376000602087830101525050509392505050565b600080600080608085870312156111d557600080fd5b84356111e081611056565b935060208501356111f081611056565b925060408501359150606085013567ffffffffffffffff81111561121357600080fd5b8501601f8101871361122457600080fd5b61123387823560208401611149565b91505092959194509250565b6000806040838503121561125257600080fd5b823561125d81611056565b9150602083013561112881611056565b6000806040838503121561128057600080fd5b823567ffffffffffffffff81111561129757600080fd5b8301601f810185136112a857600080fd5b6112b785823560208401611149565b95602094909401359450505050565b600181811c908216806112da57607f821691505b6020821081036112fa57634e487b7160e01b600052602260045260246000fd5b50919050565b60008351611312818460208801610fda565b835190830190611326818360208801610fda565b01949350505050565b634e487b7160e01b600052603260045260246000fd5b808201808211156102a257634e487b7160e01b600052601160045260246000fd5b60018060a01b0381511682526020810151602083015260006040820151606060408501526105b06060850182610ffe565b8581526000602060018060a01b03871681840152604086604085015260a060608501528551608060a08601526113d1610120860182610ffe565b90508287015160c08601526040870151609f19808784030160e08801526113f88383610ffe565b60608a01518882039092016101008901528151808252909350908501915084830190600581901b8401860160005b8281101561147657858203601f190184528451805188845261144a89850182610ffe565b918a0151848303858c01529190506114628183610ffe565b968a0196958a019593505050600101611426565b5088810360808a0152611489818b611366565b9e9d5050505050505050505050505050565b6000602082840312156114ad57600080fd5b8151610b7e81611056565b6001600160a01b03858116825284166020820152604081018390526080606082018190526000906114eb90830184610ffe565b9695505050505050565b60006020828403121561150757600080fd5b8151610b7e81610fa4565b601f82111561041d576000816000526020600020601f850160051c8101602086101561153b5750805b601f850160051c820191505b81811015610b0757828155600101611547565b815167ffffffffffffffff81111561157457611574611133565b6115888161158284546112c6565b84611512565b602080601f8311600181146115bd57600084156115a55750858301515b600019600386901b1c1916600185901b178555610b07565b600085815260208120601f198616915b828110156115ec578886015182559484019460019091019084016115cd565b508582101561160a5787850151600019600388901b60f8161c191681555b5050505050600190811b0190555056fea264697066735822122064194fbb1cebba4b93b76614a3fad1fdbc7e210e4567b3e98de584fb4edd7d9864736f6c63430008170033",
    "linkReferences": {}
  },
  "methodIdentifiers": {
    "approve(address,uint256)": "095ea7b3",
    "balanceOf(address)": "70a08231",
    "getApproved(uint256)": "081812fc",
    "ipAssetRegistry()": "3dcd103d",
    "isApprovedForAll(address,address)": "e985e9c5",
    "mintAndRegister(string,uint256)": "ec66ee3f",
    "name()": "06fdde03",
    "ownerOf(uint256)": "6352211e",
    "safeTransferFrom(address,address,uint256)": "42842e0e",
    "safeTransferFrom(address,address,uint256,bytes)": "b88d4fde",
    "setApprovalForAll(address,bool)": "a22cb465",
    "spg()": "48479272",
    "supportsInterface(bytes4)": "01ffc9a7",
    "symbol()": "95d89b41",
    "tokenID()": "a5c42ef1",
    "tokenURI(uint256)": "c87b56dd",
    "transferFrom(address,address,uint256)": "23b872dd"
  },
  "id": 0
}